{
	"contracts/FlashLoan/FlashLoanBorrower.sol": {
		"FlashLoanBorrower": {
			"abi": [
				{
					"inputs": [
						{
							"internalType": "address",
							"name": "_token",
							"type": "address"
						},
						{
							"internalType": "uint256",
							"name": "_amount",
							"type": "uint256"
						},
						{
							"internalType": "uint256",
							"name": "_fee",
							"type": "uint256"
						}
					],
					"name": "executeOperation",
					"outputs": [],
					"stateMutability": "nonpayable",
					"type": "function"
				},
				{
					"inputs": [
						{
							"internalType": "address",
							"name": "_flashLoan",
							"type": "address"
						},
						{
							"internalType": "address",
							"name": "_token",
							"type": "address"
						},
						{
							"internalType": "uint256",
							"name": "_amount",
							"type": "uint256"
						}
					],
					"name": "requestFlashLoan",
					"outputs": [],
					"stateMutability": "nonpayable",
					"type": "function"
				}
			],
			"devdoc": {
				"kind": "dev",
				"methods": {},
				"version": 1
			},
			"evm": {
				"assembly": "    /* \"contracts/FlashLoan/FlashLoanBorrower.sol\":360:1128  contract FlashLoanBorrower {... */\n  mstore(0x40, 0x80)\n  callvalue\n  dup1\n  iszero\n  tag_1\n  jumpi\n  0x00\n  dup1\n  revert\ntag_1:\n  pop\n  dataSize(sub_0)\n  dup1\n  dataOffset(sub_0)\n  0x00\n  codecopy\n  0x00\n  return\nstop\n\nsub_0: assembly {\n        /* \"contracts/FlashLoan/FlashLoanBorrower.sol\":360:1128  contract FlashLoanBorrower {... */\n      mstore(0x40, 0x80)\n      callvalue\n      dup1\n      iszero\n      tag_1\n      jumpi\n      0x00\n      dup1\n      revert\n    tag_1:\n      pop\n      jumpi(tag_2, lt(calldatasize, 0x04))\n      shr(0xe0, calldataload(0x00))\n      dup1\n      0x8b514f8c\n      eq\n      tag_3\n      jumpi\n      dup1\n      0xea3e2d30\n      eq\n      tag_4\n      jumpi\n    tag_2:\n      0x00\n      dup1\n      revert\n        /* \"contracts/FlashLoan/FlashLoanBorrower.sol\":394:678  function executeOperation(address _token, uint256 _amount, uint256 _fee) external {... */\n    tag_3:\n      tag_5\n      0x04\n      dup1\n      calldatasize\n      sub\n      dup2\n      add\n      swap1\n      tag_6\n      swap2\n      swap1\n      tag_7\n      jump\t// in\n    tag_6:\n      tag_8\n      jump\t// in\n    tag_5:\n      stop\n        /* \"contracts/FlashLoan/FlashLoanBorrower.sol\":690:1125  function requestFlashLoan(address _flashLoan, address _token, uint256 _amount) external {... */\n    tag_4:\n      tag_9\n      0x04\n      dup1\n      calldatasize\n      sub\n      dup2\n      add\n      swap1\n      tag_10\n      swap2\n      swap1\n      tag_11\n      jump\t// in\n    tag_10:\n      tag_12\n      jump\t// in\n    tag_9:\n      stop\n        /* \"contracts/FlashLoan/FlashLoanBorrower.sol\":394:678  function executeOperation(address _token, uint256 _amount, uint256 _fee) external {... */\n    tag_8:\n        /* \"contracts/FlashLoan/FlashLoanBorrower.sol\":605:611  _token */\n      dup3\n        /* \"contracts/FlashLoan/FlashLoanBorrower.sol\":598:621  IERC20(_token).transfer */\n      0xffffffffffffffffffffffffffffffffffffffff\n      and\n      0xa9059cbb\n        /* \"contracts/FlashLoan/FlashLoanBorrower.sol\":622:632  msg.sender */\n      caller\n        /* \"contracts/FlashLoan/FlashLoanBorrower.sol\":644:648  _fee */\n      dup4\n        /* \"contracts/FlashLoan/FlashLoanBorrower.sol\":634:641  _amount */\n      dup6\n        /* \"contracts/FlashLoan/FlashLoanBorrower.sol\":634:648  _amount + _fee */\n      tag_14\n      swap2\n      swap1\n      tag_15\n      jump\t// in\n    tag_14:\n        /* \"contracts/FlashLoan/FlashLoanBorrower.sol\":598:649  IERC20(_token).transfer(msg.sender, _amount + _fee) */\n      mload(0x40)\n      dup4\n      0xffffffff\n      and\n      0xe0\n      shl\n      dup2\n      mstore\n      0x04\n      add\n      tag_16\n      swap3\n      swap2\n      swap1\n      tag_17\n      jump\t// in\n    tag_16:\n      0x20\n      mload(0x40)\n      dup1\n      dup4\n      sub\n      dup2\n      0x00\n      dup8\n      gas\n      call\n      iszero\n      dup1\n      iszero\n      tag_19\n      jumpi\n      returndatasize\n      0x00\n      dup1\n      returndatacopy\n      revert(0x00, returndatasize)\n    tag_19:\n      pop\n      pop\n      pop\n      pop\n      mload(0x40)\n      returndatasize\n      not(0x1f)\n      0x1f\n      dup3\n      add\n      and\n      dup3\n      add\n      dup1\n      0x40\n      mstore\n      pop\n      dup2\n      add\n      swap1\n      tag_20\n      swap2\n      swap1\n      tag_21\n      jump\t// in\n    tag_20:\n        /* \"contracts/FlashLoan/FlashLoanBorrower.sol\":590:670  require(IERC20(_token).transfer(msg.sender, _amount + _fee), \"Repayment failed\") */\n      tag_22\n      jumpi\n      mload(0x40)\n      0x08c379a000000000000000000000000000000000000000000000000000000000\n      dup2\n      mstore\n      0x04\n      add\n      tag_23\n      swap1\n      tag_24\n      jump\t// in\n    tag_23:\n      mload(0x40)\n      dup1\n      swap2\n      sub\n      swap1\n      revert\n    tag_22:\n        /* \"contracts/FlashLoan/FlashLoanBorrower.sol\":394:678  function executeOperation(address _token, uint256 _amount, uint256 _fee) external {... */\n      pop\n      pop\n      pop\n      jump\t// out\n        /* \"contracts/FlashLoan/FlashLoanBorrower.sol\":690:1125  function requestFlashLoan(address _flashLoan, address _token, uint256 _amount) external {... */\n    tag_12:\n        /* \"contracts/FlashLoan/FlashLoanBorrower.sol\":830:847  bytes memory data */\n      0x00\n        /* \"contracts/FlashLoan/FlashLoanBorrower.sol\":946:952  _token */\n      dup3\n        /* \"contracts/FlashLoan/FlashLoanBorrower.sol\":967:974  _amount */\n      dup3\n        /* \"contracts/FlashLoan/FlashLoanBorrower.sol\":1005:1010  10000 */\n      0x2710\n        /* \"contracts/FlashLoan/FlashLoanBorrower.sol\":1000:1001  5 */\n      0x05\n        /* \"contracts/FlashLoan/FlashLoanBorrower.sol\":990:997  _amount */\n      dup6\n        /* \"contracts/FlashLoan/FlashLoanBorrower.sol\":990:1001  _amount * 5 */\n      tag_26\n      swap2\n      swap1\n      tag_27\n      jump\t// in\n    tag_26:\n        /* \"contracts/FlashLoan/FlashLoanBorrower.sol\":989:1010  (_amount * 5) / 10000 */\n      tag_28\n      swap2\n      swap1\n      tag_29\n      jump\t// in\n    tag_28:\n        /* \"contracts/FlashLoan/FlashLoanBorrower.sol\":850:1034  abi.encodeWithSignature(... */\n      add(0x24, mload(0x40))\n      tag_30\n      swap4\n      swap3\n      swap2\n      swap1\n      tag_31\n      jump\t// in\n    tag_30:\n      mload(0x40)\n      0x20\n      dup2\n      dup4\n      sub\n      sub\n      dup2\n      mstore\n      swap1\n      0x40\n      mstore\n      and(not(0xffffffffffffffffffffffffffffffffffffffffffffffffffffffff), 0x8b514f8c00000000000000000000000000000000000000000000000000000000)\n      0x20\n      dup3\n      add\n      dup1\n      mload\n      0xffffffffffffffffffffffffffffffffffffffffffffffffffffffff\n      dup4\n      dup2\n      dup4\n      and\n      or\n      dup4\n      mstore\n      pop\n      pop\n      pop\n      pop\n        /* \"contracts/FlashLoan/FlashLoanBorrower.sol\":830:1034  bytes memory data = abi.encodeWithSignature(... */\n      swap1\n      pop\n        /* \"contracts/FlashLoan/FlashLoanBorrower.sol\":1066:1076  _flashLoan */\n      dup4\n        /* \"contracts/FlashLoan/FlashLoanBorrower.sol\":1055:1094  IFlashLoan(_flashLoan).executeFlashLoan */\n      0xffffffffffffffffffffffffffffffffffffffff\n      and\n      0xf3df1253\n        /* \"contracts/FlashLoan/FlashLoanBorrower.sol\":1095:1101  _token */\n      dup5\n        /* \"contracts/FlashLoan/FlashLoanBorrower.sol\":1103:1110  _amount */\n      dup5\n        /* \"contracts/FlashLoan/FlashLoanBorrower.sol\":1112:1116  data */\n      dup5\n        /* \"contracts/FlashLoan/FlashLoanBorrower.sol\":1055:1117  IFlashLoan(_flashLoan).executeFlashLoan(_token, _amount, data) */\n      mload(0x40)\n      dup5\n      0xffffffff\n      and\n      0xe0\n      shl\n      dup2\n      mstore\n      0x04\n      add\n      tag_32\n      swap4\n      swap3\n      swap2\n      swap1\n      tag_33\n      jump\t// in\n    tag_32:\n      0x00\n      mload(0x40)\n      dup1\n      dup4\n      sub\n      dup2\n      0x00\n      dup8\n      dup1\n      extcodesize\n      iszero\n      dup1\n      iszero\n      tag_34\n      jumpi\n      0x00\n      dup1\n      revert\n    tag_34:\n      pop\n      gas\n      call\n      iszero\n      dup1\n      iszero\n      tag_36\n      jumpi\n      returndatasize\n      0x00\n      dup1\n      returndatacopy\n      revert(0x00, returndatasize)\n    tag_36:\n      pop\n      pop\n      pop\n      pop\n        /* \"contracts/FlashLoan/FlashLoanBorrower.sol\":778:1125  {... */\n      pop\n        /* \"contracts/FlashLoan/FlashLoanBorrower.sol\":690:1125  function requestFlashLoan(address _flashLoan, address _token, uint256 _amount) external {... */\n      pop\n      pop\n      pop\n      jump\t// out\n        /* \"#utility.yul\":88:205   */\n    tag_38:\n        /* \"#utility.yul\":197:198   */\n      0x00\n        /* \"#utility.yul\":194:195   */\n      dup1\n        /* \"#utility.yul\":187:199   */\n      revert\n        /* \"#utility.yul\":334:460   */\n    tag_40:\n        /* \"#utility.yul\":371:378   */\n      0x00\n        /* \"#utility.yul\":411:453   */\n      0xffffffffffffffffffffffffffffffffffffffff\n        /* \"#utility.yul\":404:409   */\n      dup3\n        /* \"#utility.yul\":400:454   */\n      and\n        /* \"#utility.yul\":389:454   */\n      swap1\n      pop\n        /* \"#utility.yul\":334:460   */\n      swap2\n      swap1\n      pop\n      jump\t// out\n        /* \"#utility.yul\":466:562   */\n    tag_41:\n        /* \"#utility.yul\":503:510   */\n      0x00\n        /* \"#utility.yul\":532:556   */\n      tag_68\n        /* \"#utility.yul\":550:555   */\n      dup3\n        /* \"#utility.yul\":532:556   */\n      tag_40\n      jump\t// in\n    tag_68:\n        /* \"#utility.yul\":521:556   */\n      swap1\n      pop\n        /* \"#utility.yul\":466:562   */\n      swap2\n      swap1\n      pop\n      jump\t// out\n        /* \"#utility.yul\":568:690   */\n    tag_42:\n        /* \"#utility.yul\":641:665   */\n      tag_70\n        /* \"#utility.yul\":659:664   */\n      dup2\n        /* \"#utility.yul\":641:665   */\n      tag_41\n      jump\t// in\n    tag_70:\n        /* \"#utility.yul\":634:639   */\n      dup2\n        /* \"#utility.yul\":631:666   */\n      eq\n        /* \"#utility.yul\":621:684   */\n      tag_71\n      jumpi\n        /* \"#utility.yul\":680:681   */\n      0x00\n        /* \"#utility.yul\":677:678   */\n      dup1\n        /* \"#utility.yul\":670:682   */\n      revert\n        /* \"#utility.yul\":621:684   */\n    tag_71:\n        /* \"#utility.yul\":568:690   */\n      pop\n      jump\t// out\n        /* \"#utility.yul\":696:835   */\n    tag_43:\n        /* \"#utility.yul\":742:747   */\n      0x00\n        /* \"#utility.yul\":780:786   */\n      dup2\n        /* \"#utility.yul\":767:787   */\n      calldataload\n        /* \"#utility.yul\":758:787   */\n      swap1\n      pop\n        /* \"#utility.yul\":796:829   */\n      tag_73\n        /* \"#utility.yul\":823:828   */\n      dup2\n        /* \"#utility.yul\":796:829   */\n      tag_42\n      jump\t// in\n    tag_73:\n        /* \"#utility.yul\":696:835   */\n      swap3\n      swap2\n      pop\n      pop\n      jump\t// out\n        /* \"#utility.yul\":841:918   */\n    tag_44:\n        /* \"#utility.yul\":878:885   */\n      0x00\n        /* \"#utility.yul\":907:912   */\n      dup2\n        /* \"#utility.yul\":896:912   */\n      swap1\n      pop\n        /* \"#utility.yul\":841:918   */\n      swap2\n      swap1\n      pop\n      jump\t// out\n        /* \"#utility.yul\":924:1046   */\n    tag_45:\n        /* \"#utility.yul\":997:1021   */\n      tag_76\n        /* \"#utility.yul\":1015:1020   */\n      dup2\n        /* \"#utility.yul\":997:1021   */\n      tag_44\n      jump\t// in\n    tag_76:\n        /* \"#utility.yul\":990:995   */\n      dup2\n        /* \"#utility.yul\":987:1022   */\n      eq\n        /* \"#utility.yul\":977:1040   */\n      tag_77\n      jumpi\n        /* \"#utility.yul\":1036:1037   */\n      0x00\n        /* \"#utility.yul\":1033:1034   */\n      dup1\n        /* \"#utility.yul\":1026:1038   */\n      revert\n        /* \"#utility.yul\":977:1040   */\n    tag_77:\n        /* \"#utility.yul\":924:1046   */\n      pop\n      jump\t// out\n        /* \"#utility.yul\":1052:1191   */\n    tag_46:\n        /* \"#utility.yul\":1098:1103   */\n      0x00\n        /* \"#utility.yul\":1136:1142   */\n      dup2\n        /* \"#utility.yul\":1123:1143   */\n      calldataload\n        /* \"#utility.yul\":1114:1143   */\n      swap1\n      pop\n        /* \"#utility.yul\":1152:1185   */\n      tag_79\n        /* \"#utility.yul\":1179:1184   */\n      dup2\n        /* \"#utility.yul\":1152:1185   */\n      tag_45\n      jump\t// in\n    tag_79:\n        /* \"#utility.yul\":1052:1191   */\n      swap3\n      swap2\n      pop\n      pop\n      jump\t// out\n        /* \"#utility.yul\":1197:1816   */\n    tag_7:\n        /* \"#utility.yul\":1274:1280   */\n      0x00\n        /* \"#utility.yul\":1282:1288   */\n      dup1\n        /* \"#utility.yul\":1290:1296   */\n      0x00\n        /* \"#utility.yul\":1339:1341   */\n      0x60\n        /* \"#utility.yul\":1327:1336   */\n      dup5\n        /* \"#utility.yul\":1318:1325   */\n      dup7\n        /* \"#utility.yul\":1314:1337   */\n      sub\n        /* \"#utility.yul\":1310:1342   */\n      slt\n        /* \"#utility.yul\":1307:1426   */\n      iszero\n      tag_81\n      jumpi\n        /* \"#utility.yul\":1345:1424   */\n      tag_82\n      tag_38\n      jump\t// in\n    tag_82:\n        /* \"#utility.yul\":1307:1426   */\n    tag_81:\n        /* \"#utility.yul\":1465:1466   */\n      0x00\n        /* \"#utility.yul\":1490:1543   */\n      tag_83\n        /* \"#utility.yul\":1535:1542   */\n      dup7\n        /* \"#utility.yul\":1526:1532   */\n      dup3\n        /* \"#utility.yul\":1515:1524   */\n      dup8\n        /* \"#utility.yul\":1511:1533   */\n      add\n        /* \"#utility.yul\":1490:1543   */\n      tag_43\n      jump\t// in\n    tag_83:\n        /* \"#utility.yul\":1480:1543   */\n      swap4\n      pop\n        /* \"#utility.yul\":1436:1553   */\n      pop\n        /* \"#utility.yul\":1592:1594   */\n      0x20\n        /* \"#utility.yul\":1618:1671   */\n      tag_84\n        /* \"#utility.yul\":1663:1670   */\n      dup7\n        /* \"#utility.yul\":1654:1660   */\n      dup3\n        /* \"#utility.yul\":1643:1652   */\n      dup8\n        /* \"#utility.yul\":1639:1661   */\n      add\n        /* \"#utility.yul\":1618:1671   */\n      tag_46\n      jump\t// in\n    tag_84:\n        /* \"#utility.yul\":1608:1671   */\n      swap3\n      pop\n        /* \"#utility.yul\":1563:1681   */\n      pop\n        /* \"#utility.yul\":1720:1722   */\n      0x40\n        /* \"#utility.yul\":1746:1799   */\n      tag_85\n        /* \"#utility.yul\":1791:1798   */\n      dup7\n        /* \"#utility.yul\":1782:1788   */\n      dup3\n        /* \"#utility.yul\":1771:1780   */\n      dup8\n        /* \"#utility.yul\":1767:1789   */\n      add\n        /* \"#utility.yul\":1746:1799   */\n      tag_46\n      jump\t// in\n    tag_85:\n        /* \"#utility.yul\":1736:1799   */\n      swap2\n      pop\n        /* \"#utility.yul\":1691:1809   */\n      pop\n        /* \"#utility.yul\":1197:1816   */\n      swap3\n      pop\n      swap3\n      pop\n      swap3\n      jump\t// out\n        /* \"#utility.yul\":1822:2441   */\n    tag_11:\n        /* \"#utility.yul\":1899:1905   */\n      0x00\n        /* \"#utility.yul\":1907:1913   */\n      dup1\n        /* \"#utility.yul\":1915:1921   */\n      0x00\n        /* \"#utility.yul\":1964:1966   */\n      0x60\n        /* \"#utility.yul\":1952:1961   */\n      dup5\n        /* \"#utility.yul\":1943:1950   */\n      dup7\n        /* \"#utility.yul\":1939:1962   */\n      sub\n        /* \"#utility.yul\":1935:1967   */\n      slt\n        /* \"#utility.yul\":1932:2051   */\n      iszero\n      tag_87\n      jumpi\n        /* \"#utility.yul\":1970:2049   */\n      tag_88\n      tag_38\n      jump\t// in\n    tag_88:\n        /* \"#utility.yul\":1932:2051   */\n    tag_87:\n        /* \"#utility.yul\":2090:2091   */\n      0x00\n        /* \"#utility.yul\":2115:2168   */\n      tag_89\n        /* \"#utility.yul\":2160:2167   */\n      dup7\n        /* \"#utility.yul\":2151:2157   */\n      dup3\n        /* \"#utility.yul\":2140:2149   */\n      dup8\n        /* \"#utility.yul\":2136:2158   */\n      add\n        /* \"#utility.yul\":2115:2168   */\n      tag_43\n      jump\t// in\n    tag_89:\n        /* \"#utility.yul\":2105:2168   */\n      swap4\n      pop\n        /* \"#utility.yul\":2061:2178   */\n      pop\n        /* \"#utility.yul\":2217:2219   */\n      0x20\n        /* \"#utility.yul\":2243:2296   */\n      tag_90\n        /* \"#utility.yul\":2288:2295   */\n      dup7\n        /* \"#utility.yul\":2279:2285   */\n      dup3\n        /* \"#utility.yul\":2268:2277   */\n      dup8\n        /* \"#utility.yul\":2264:2286   */\n      add\n        /* \"#utility.yul\":2243:2296   */\n      tag_43\n      jump\t// in\n    tag_90:\n        /* \"#utility.yul\":2233:2296   */\n      swap3\n      pop\n        /* \"#utility.yul\":2188:2306   */\n      pop\n        /* \"#utility.yul\":2345:2347   */\n      0x40\n        /* \"#utility.yul\":2371:2424   */\n      tag_91\n        /* \"#utility.yul\":2416:2423   */\n      dup7\n        /* \"#utility.yul\":2407:2413   */\n      dup3\n        /* \"#utility.yul\":2396:2405   */\n      dup8\n        /* \"#utility.yul\":2392:2414   */\n      add\n        /* \"#utility.yul\":2371:2424   */\n      tag_46\n      jump\t// in\n    tag_91:\n        /* \"#utility.yul\":2361:2424   */\n      swap2\n      pop\n        /* \"#utility.yul\":2316:2434   */\n      pop\n        /* \"#utility.yul\":1822:2441   */\n      swap3\n      pop\n      swap3\n      pop\n      swap3\n      jump\t// out\n        /* \"#utility.yul\":2447:2627   */\n    tag_47:\n        /* \"#utility.yul\":2495:2572   */\n      0x4e487b7100000000000000000000000000000000000000000000000000000000\n        /* \"#utility.yul\":2492:2493   */\n      0x00\n        /* \"#utility.yul\":2485:2573   */\n      mstore\n        /* \"#utility.yul\":2592:2596   */\n      0x11\n        /* \"#utility.yul\":2589:2590   */\n      0x04\n        /* \"#utility.yul\":2582:2597   */\n      mstore\n        /* \"#utility.yul\":2616:2620   */\n      0x24\n        /* \"#utility.yul\":2613:2614   */\n      0x00\n        /* \"#utility.yul\":2606:2621   */\n      revert\n        /* \"#utility.yul\":2633:2824   */\n    tag_15:\n        /* \"#utility.yul\":2673:2676   */\n      0x00\n        /* \"#utility.yul\":2692:2712   */\n      tag_94\n        /* \"#utility.yul\":2710:2711   */\n      dup3\n        /* \"#utility.yul\":2692:2712   */\n      tag_44\n      jump\t// in\n    tag_94:\n        /* \"#utility.yul\":2687:2712   */\n      swap2\n      pop\n        /* \"#utility.yul\":2726:2746   */\n      tag_95\n        /* \"#utility.yul\":2744:2745   */\n      dup4\n        /* \"#utility.yul\":2726:2746   */\n      tag_44\n      jump\t// in\n    tag_95:\n        /* \"#utility.yul\":2721:2746   */\n      swap3\n      pop\n        /* \"#utility.yul\":2769:2770   */\n      dup3\n        /* \"#utility.yul\":2766:2767   */\n      dup3\n        /* \"#utility.yul\":2762:2771   */\n      add\n        /* \"#utility.yul\":2755:2771   */\n      swap1\n      pop\n        /* \"#utility.yul\":2790:2793   */\n      dup1\n        /* \"#utility.yul\":2787:2788   */\n      dup3\n        /* \"#utility.yul\":2784:2794   */\n      gt\n        /* \"#utility.yul\":2781:2817   */\n      iszero\n      tag_96\n      jumpi\n        /* \"#utility.yul\":2797:2815   */\n      tag_97\n      tag_47\n      jump\t// in\n    tag_97:\n        /* \"#utility.yul\":2781:2817   */\n    tag_96:\n        /* \"#utility.yul\":2633:2824   */\n      swap3\n      swap2\n      pop\n      pop\n      jump\t// out\n        /* \"#utility.yul\":2830:2948   */\n    tag_48:\n        /* \"#utility.yul\":2917:2941   */\n      tag_99\n        /* \"#utility.yul\":2935:2940   */\n      dup2\n        /* \"#utility.yul\":2917:2941   */\n      tag_41\n      jump\t// in\n    tag_99:\n        /* \"#utility.yul\":2912:2915   */\n      dup3\n        /* \"#utility.yul\":2905:2942   */\n      mstore\n        /* \"#utility.yul\":2830:2948   */\n      pop\n      pop\n      jump\t// out\n        /* \"#utility.yul\":2954:3072   */\n    tag_49:\n        /* \"#utility.yul\":3041:3065   */\n      tag_101\n        /* \"#utility.yul\":3059:3064   */\n      dup2\n        /* \"#utility.yul\":3041:3065   */\n      tag_44\n      jump\t// in\n    tag_101:\n        /* \"#utility.yul\":3036:3039   */\n      dup3\n        /* \"#utility.yul\":3029:3066   */\n      mstore\n        /* \"#utility.yul\":2954:3072   */\n      pop\n      pop\n      jump\t// out\n        /* \"#utility.yul\":3078:3410   */\n    tag_17:\n        /* \"#utility.yul\":3199:3203   */\n      0x00\n        /* \"#utility.yul\":3237:3239   */\n      0x40\n        /* \"#utility.yul\":3226:3235   */\n      dup3\n        /* \"#utility.yul\":3222:3240   */\n      add\n        /* \"#utility.yul\":3214:3240   */\n      swap1\n      pop\n        /* \"#utility.yul\":3250:3321   */\n      tag_103\n        /* \"#utility.yul\":3318:3319   */\n      0x00\n        /* \"#utility.yul\":3307:3316   */\n      dup4\n        /* \"#utility.yul\":3303:3320   */\n      add\n        /* \"#utility.yul\":3294:3300   */\n      dup6\n        /* \"#utility.yul\":3250:3321   */\n      tag_48\n      jump\t// in\n    tag_103:\n        /* \"#utility.yul\":3331:3403   */\n      tag_104\n        /* \"#utility.yul\":3399:3401   */\n      0x20\n        /* \"#utility.yul\":3388:3397   */\n      dup4\n        /* \"#utility.yul\":3384:3402   */\n      add\n        /* \"#utility.yul\":3375:3381   */\n      dup5\n        /* \"#utility.yul\":3331:3403   */\n      tag_49\n      jump\t// in\n    tag_104:\n        /* \"#utility.yul\":3078:3410   */\n      swap4\n      swap3\n      pop\n      pop\n      pop\n      jump\t// out\n        /* \"#utility.yul\":3416:3506   */\n    tag_50:\n        /* \"#utility.yul\":3450:3457   */\n      0x00\n        /* \"#utility.yul\":3493:3498   */\n      dup2\n        /* \"#utility.yul\":3486:3499   */\n      iszero\n        /* \"#utility.yul\":3479:3500   */\n      iszero\n        /* \"#utility.yul\":3468:3500   */\n      swap1\n      pop\n        /* \"#utility.yul\":3416:3506   */\n      swap2\n      swap1\n      pop\n      jump\t// out\n        /* \"#utility.yul\":3512:3628   */\n    tag_51:\n        /* \"#utility.yul\":3582:3603   */\n      tag_107\n        /* \"#utility.yul\":3597:3602   */\n      dup2\n        /* \"#utility.yul\":3582:3603   */\n      tag_50\n      jump\t// in\n    tag_107:\n        /* \"#utility.yul\":3575:3580   */\n      dup2\n        /* \"#utility.yul\":3572:3604   */\n      eq\n        /* \"#utility.yul\":3562:3622   */\n      tag_108\n      jumpi\n        /* \"#utility.yul\":3618:3619   */\n      0x00\n        /* \"#utility.yul\":3615:3616   */\n      dup1\n        /* \"#utility.yul\":3608:3620   */\n      revert\n        /* \"#utility.yul\":3562:3622   */\n    tag_108:\n        /* \"#utility.yul\":3512:3628   */\n      pop\n      jump\t// out\n        /* \"#utility.yul\":3634:3771   */\n    tag_52:\n        /* \"#utility.yul\":3688:3693   */\n      0x00\n        /* \"#utility.yul\":3719:3725   */\n      dup2\n        /* \"#utility.yul\":3713:3726   */\n      mload\n        /* \"#utility.yul\":3704:3726   */\n      swap1\n      pop\n        /* \"#utility.yul\":3735:3765   */\n      tag_110\n        /* \"#utility.yul\":3759:3764   */\n      dup2\n        /* \"#utility.yul\":3735:3765   */\n      tag_51\n      jump\t// in\n    tag_110:\n        /* \"#utility.yul\":3634:3771   */\n      swap3\n      swap2\n      pop\n      pop\n      jump\t// out\n        /* \"#utility.yul\":3777:4122   */\n    tag_21:\n        /* \"#utility.yul\":3844:3850   */\n      0x00\n        /* \"#utility.yul\":3893:3895   */\n      0x20\n        /* \"#utility.yul\":3881:3890   */\n      dup3\n        /* \"#utility.yul\":3872:3879   */\n      dup5\n        /* \"#utility.yul\":3868:3891   */\n      sub\n        /* \"#utility.yul\":3864:3896   */\n      slt\n        /* \"#utility.yul\":3861:3980   */\n      iszero\n      tag_112\n      jumpi\n        /* \"#utility.yul\":3899:3978   */\n      tag_113\n      tag_38\n      jump\t// in\n    tag_113:\n        /* \"#utility.yul\":3861:3980   */\n    tag_112:\n        /* \"#utility.yul\":4019:4020   */\n      0x00\n        /* \"#utility.yul\":4044:4105   */\n      tag_114\n        /* \"#utility.yul\":4097:4104   */\n      dup5\n        /* \"#utility.yul\":4088:4094   */\n      dup3\n        /* \"#utility.yul\":4077:4086   */\n      dup6\n        /* \"#utility.yul\":4073:4095   */\n      add\n        /* \"#utility.yul\":4044:4105   */\n      tag_52\n      jump\t// in\n    tag_114:\n        /* \"#utility.yul\":4034:4105   */\n      swap2\n      pop\n        /* \"#utility.yul\":3990:4115   */\n      pop\n        /* \"#utility.yul\":3777:4122   */\n      swap3\n      swap2\n      pop\n      pop\n      jump\t// out\n        /* \"#utility.yul\":4128:4297   */\n    tag_53:\n        /* \"#utility.yul\":4212:4223   */\n      0x00\n        /* \"#utility.yul\":4246:4252   */\n      dup3\n        /* \"#utility.yul\":4241:4244   */\n      dup3\n        /* \"#utility.yul\":4234:4253   */\n      mstore\n        /* \"#utility.yul\":4286:4290   */\n      0x20\n        /* \"#utility.yul\":4281:4284   */\n      dup3\n        /* \"#utility.yul\":4277:4291   */\n      add\n        /* \"#utility.yul\":4262:4291   */\n      swap1\n      pop\n        /* \"#utility.yul\":4128:4297   */\n      swap3\n      swap2\n      pop\n      pop\n      jump\t// out\n        /* \"#utility.yul\":4303:4469   */\n    tag_54:\n        /* \"#utility.yul\":4443:4461   */\n      0x52657061796d656e74206661696c656400000000000000000000000000000000\n        /* \"#utility.yul\":4439:4440   */\n      0x00\n        /* \"#utility.yul\":4431:4437   */\n      dup3\n        /* \"#utility.yul\":4427:4441   */\n      add\n        /* \"#utility.yul\":4420:4462   */\n      mstore\n        /* \"#utility.yul\":4303:4469   */\n      pop\n      jump\t// out\n        /* \"#utility.yul\":4475:4841   */\n    tag_55:\n        /* \"#utility.yul\":4617:4620   */\n      0x00\n        /* \"#utility.yul\":4638:4705   */\n      tag_118\n        /* \"#utility.yul\":4702:4704   */\n      0x10\n        /* \"#utility.yul\":4697:4700   */\n      dup4\n        /* \"#utility.yul\":4638:4705   */\n      tag_53\n      jump\t// in\n    tag_118:\n        /* \"#utility.yul\":4631:4705   */\n      swap2\n      pop\n        /* \"#utility.yul\":4714:4807   */\n      tag_119\n        /* \"#utility.yul\":4803:4806   */\n      dup3\n        /* \"#utility.yul\":4714:4807   */\n      tag_54\n      jump\t// in\n    tag_119:\n        /* \"#utility.yul\":4832:4834   */\n      0x20\n        /* \"#utility.yul\":4827:4830   */\n      dup3\n        /* \"#utility.yul\":4823:4835   */\n      add\n        /* \"#utility.yul\":4816:4835   */\n      swap1\n      pop\n        /* \"#utility.yul\":4475:4841   */\n      swap2\n      swap1\n      pop\n      jump\t// out\n        /* \"#utility.yul\":4847:5266   */\n    tag_24:\n        /* \"#utility.yul\":5013:5017   */\n      0x00\n        /* \"#utility.yul\":5051:5053   */\n      0x20\n        /* \"#utility.yul\":5040:5049   */\n      dup3\n        /* \"#utility.yul\":5036:5054   */\n      add\n        /* \"#utility.yul\":5028:5054   */\n      swap1\n      pop\n        /* \"#utility.yul\":5100:5109   */\n      dup2\n        /* \"#utility.yul\":5094:5098   */\n      dup2\n        /* \"#utility.yul\":5090:5110   */\n      sub\n        /* \"#utility.yul\":5086:5087   */\n      0x00\n        /* \"#utility.yul\":5075:5084   */\n      dup4\n        /* \"#utility.yul\":5071:5088   */\n      add\n        /* \"#utility.yul\":5064:5111   */\n      mstore\n        /* \"#utility.yul\":5128:5259   */\n      tag_121\n        /* \"#utility.yul\":5254:5258   */\n      dup2\n        /* \"#utility.yul\":5128:5259   */\n      tag_55\n      jump\t// in\n    tag_121:\n        /* \"#utility.yul\":5120:5259   */\n      swap1\n      pop\n        /* \"#utility.yul\":4847:5266   */\n      swap2\n      swap1\n      pop\n      jump\t// out\n        /* \"#utility.yul\":5272:5682   */\n    tag_27:\n        /* \"#utility.yul\":5312:5319   */\n      0x00\n        /* \"#utility.yul\":5335:5355   */\n      tag_123\n        /* \"#utility.yul\":5353:5354   */\n      dup3\n        /* \"#utility.yul\":5335:5355   */\n      tag_44\n      jump\t// in\n    tag_123:\n        /* \"#utility.yul\":5330:5355   */\n      swap2\n      pop\n        /* \"#utility.yul\":5369:5389   */\n      tag_124\n        /* \"#utility.yul\":5387:5388   */\n      dup4\n        /* \"#utility.yul\":5369:5389   */\n      tag_44\n      jump\t// in\n    tag_124:\n        /* \"#utility.yul\":5364:5389   */\n      swap3\n      pop\n        /* \"#utility.yul\":5424:5425   */\n      dup3\n        /* \"#utility.yul\":5421:5422   */\n      dup3\n        /* \"#utility.yul\":5417:5426   */\n      mul\n        /* \"#utility.yul\":5446:5476   */\n      tag_125\n        /* \"#utility.yul\":5464:5475   */\n      dup2\n        /* \"#utility.yul\":5446:5476   */\n      tag_44\n      jump\t// in\n    tag_125:\n        /* \"#utility.yul\":5435:5476   */\n      swap2\n      pop\n        /* \"#utility.yul\":5625:5626   */\n      dup3\n        /* \"#utility.yul\":5616:5623   */\n      dup3\n        /* \"#utility.yul\":5612:5627   */\n      div\n        /* \"#utility.yul\":5609:5610   */\n      dup5\n        /* \"#utility.yul\":5606:5628   */\n      eq\n        /* \"#utility.yul\":5586:5587   */\n      dup4\n        /* \"#utility.yul\":5579:5588   */\n      iszero\n        /* \"#utility.yul\":5559:5642   */\n      or\n        /* \"#utility.yul\":5536:5675   */\n      tag_126\n      jumpi\n        /* \"#utility.yul\":5655:5673   */\n      tag_127\n      tag_47\n      jump\t// in\n    tag_127:\n        /* \"#utility.yul\":5536:5675   */\n    tag_126:\n        /* \"#utility.yul\":5320:5682   */\n      pop\n        /* \"#utility.yul\":5272:5682   */\n      swap3\n      swap2\n      pop\n      pop\n      jump\t// out\n        /* \"#utility.yul\":5688:5868   */\n    tag_56:\n        /* \"#utility.yul\":5736:5813   */\n      0x4e487b7100000000000000000000000000000000000000000000000000000000\n        /* \"#utility.yul\":5733:5734   */\n      0x00\n        /* \"#utility.yul\":5726:5814   */\n      mstore\n        /* \"#utility.yul\":5833:5837   */\n      0x12\n        /* \"#utility.yul\":5830:5831   */\n      0x04\n        /* \"#utility.yul\":5823:5838   */\n      mstore\n        /* \"#utility.yul\":5857:5861   */\n      0x24\n        /* \"#utility.yul\":5854:5855   */\n      0x00\n        /* \"#utility.yul\":5847:5862   */\n      revert\n        /* \"#utility.yul\":5874:6059   */\n    tag_29:\n        /* \"#utility.yul\":5914:5915   */\n      0x00\n        /* \"#utility.yul\":5931:5951   */\n      tag_130\n        /* \"#utility.yul\":5949:5950   */\n      dup3\n        /* \"#utility.yul\":5931:5951   */\n      tag_44\n      jump\t// in\n    tag_130:\n        /* \"#utility.yul\":5926:5951   */\n      swap2\n      pop\n        /* \"#utility.yul\":5965:5985   */\n      tag_131\n        /* \"#utility.yul\":5983:5984   */\n      dup4\n        /* \"#utility.yul\":5965:5985   */\n      tag_44\n      jump\t// in\n    tag_131:\n        /* \"#utility.yul\":5960:5985   */\n      swap3\n      pop\n        /* \"#utility.yul\":6004:6005   */\n      dup3\n        /* \"#utility.yul\":5994:6029   */\n      tag_132\n      jumpi\n        /* \"#utility.yul\":6009:6027   */\n      tag_133\n      tag_56\n      jump\t// in\n    tag_133:\n        /* \"#utility.yul\":5994:6029   */\n    tag_132:\n        /* \"#utility.yul\":6051:6052   */\n      dup3\n        /* \"#utility.yul\":6048:6049   */\n      dup3\n        /* \"#utility.yul\":6044:6053   */\n      div\n        /* \"#utility.yul\":6039:6053   */\n      swap1\n      pop\n        /* \"#utility.yul\":5874:6059   */\n      swap3\n      swap2\n      pop\n      pop\n      jump\t// out\n        /* \"#utility.yul\":6065:6507   */\n    tag_31:\n        /* \"#utility.yul\":6214:6218   */\n      0x00\n        /* \"#utility.yul\":6252:6254   */\n      0x60\n        /* \"#utility.yul\":6241:6250   */\n      dup3\n        /* \"#utility.yul\":6237:6255   */\n      add\n        /* \"#utility.yul\":6229:6255   */\n      swap1\n      pop\n        /* \"#utility.yul\":6265:6336   */\n      tag_135\n        /* \"#utility.yul\":6333:6334   */\n      0x00\n        /* \"#utility.yul\":6322:6331   */\n      dup4\n        /* \"#utility.yul\":6318:6335   */\n      add\n        /* \"#utility.yul\":6309:6315   */\n      dup7\n        /* \"#utility.yul\":6265:6336   */\n      tag_48\n      jump\t// in\n    tag_135:\n        /* \"#utility.yul\":6346:6418   */\n      tag_136\n        /* \"#utility.yul\":6414:6416   */\n      0x20\n        /* \"#utility.yul\":6403:6412   */\n      dup4\n        /* \"#utility.yul\":6399:6417   */\n      add\n        /* \"#utility.yul\":6390:6396   */\n      dup6\n        /* \"#utility.yul\":6346:6418   */\n      tag_49\n      jump\t// in\n    tag_136:\n        /* \"#utility.yul\":6428:6500   */\n      tag_137\n        /* \"#utility.yul\":6496:6498   */\n      0x40\n        /* \"#utility.yul\":6485:6494   */\n      dup4\n        /* \"#utility.yul\":6481:6499   */\n      add\n        /* \"#utility.yul\":6472:6478   */\n      dup5\n        /* \"#utility.yul\":6428:6500   */\n      tag_49\n      jump\t// in\n    tag_137:\n        /* \"#utility.yul\":6065:6507   */\n      swap5\n      swap4\n      pop\n      pop\n      pop\n      pop\n      jump\t// out\n        /* \"#utility.yul\":6513:6611   */\n    tag_57:\n        /* \"#utility.yul\":6564:6570   */\n      0x00\n        /* \"#utility.yul\":6598:6603   */\n      dup2\n        /* \"#utility.yul\":6592:6604   */\n      mload\n        /* \"#utility.yul\":6582:6604   */\n      swap1\n      pop\n        /* \"#utility.yul\":6513:6611   */\n      swap2\n      swap1\n      pop\n      jump\t// out\n        /* \"#utility.yul\":6617:6785   */\n    tag_58:\n        /* \"#utility.yul\":6700:6711   */\n      0x00\n        /* \"#utility.yul\":6734:6740   */\n      dup3\n        /* \"#utility.yul\":6729:6732   */\n      dup3\n        /* \"#utility.yul\":6722:6741   */\n      mstore\n        /* \"#utility.yul\":6774:6778   */\n      0x20\n        /* \"#utility.yul\":6769:6772   */\n      dup3\n        /* \"#utility.yul\":6765:6779   */\n      add\n        /* \"#utility.yul\":6750:6779   */\n      swap1\n      pop\n        /* \"#utility.yul\":6617:6785   */\n      swap3\n      swap2\n      pop\n      pop\n      jump\t// out\n        /* \"#utility.yul\":6791:6930   */\n    tag_59:\n        /* \"#utility.yul\":6880:6886   */\n      dup3\n        /* \"#utility.yul\":6875:6878   */\n      dup2\n        /* \"#utility.yul\":6870:6873   */\n      dup4\n        /* \"#utility.yul\":6864:6887   */\n      mcopy\n        /* \"#utility.yul\":6921:6922   */\n      0x00\n        /* \"#utility.yul\":6912:6918   */\n      dup4\n        /* \"#utility.yul\":6907:6910   */\n      dup4\n        /* \"#utility.yul\":6903:6919   */\n      add\n        /* \"#utility.yul\":6896:6923   */\n      mstore\n        /* \"#utility.yul\":6791:6930   */\n      pop\n      pop\n      pop\n      jump\t// out\n        /* \"#utility.yul\":6936:7038   */\n    tag_60:\n        /* \"#utility.yul\":6977:6983   */\n      0x00\n        /* \"#utility.yul\":7028:7030   */\n      0x1f\n        /* \"#utility.yul\":7024:7031   */\n      not\n        /* \"#utility.yul\":7019:7021   */\n      0x1f\n        /* \"#utility.yul\":7012:7017   */\n      dup4\n        /* \"#utility.yul\":7008:7022   */\n      add\n        /* \"#utility.yul\":7004:7032   */\n      and\n        /* \"#utility.yul\":6994:7032   */\n      swap1\n      pop\n        /* \"#utility.yul\":6936:7038   */\n      swap2\n      swap1\n      pop\n      jump\t// out\n        /* \"#utility.yul\":7044:7417   */\n    tag_61:\n        /* \"#utility.yul\":7130:7133   */\n      0x00\n        /* \"#utility.yul\":7158:7196   */\n      tag_143\n        /* \"#utility.yul\":7190:7195   */\n      dup3\n        /* \"#utility.yul\":7158:7196   */\n      tag_57\n      jump\t// in\n    tag_143:\n        /* \"#utility.yul\":7212:7282   */\n      tag_144\n        /* \"#utility.yul\":7275:7281   */\n      dup2\n        /* \"#utility.yul\":7270:7273   */\n      dup6\n        /* \"#utility.yul\":7212:7282   */\n      tag_58\n      jump\t// in\n    tag_144:\n        /* \"#utility.yul\":7205:7282   */\n      swap4\n      pop\n        /* \"#utility.yul\":7291:7356   */\n      tag_145\n        /* \"#utility.yul\":7349:7355   */\n      dup2\n        /* \"#utility.yul\":7344:7347   */\n      dup6\n        /* \"#utility.yul\":7337:7341   */\n      0x20\n        /* \"#utility.yul\":7330:7335   */\n      dup7\n        /* \"#utility.yul\":7326:7342   */\n      add\n        /* \"#utility.yul\":7291:7356   */\n      tag_59\n      jump\t// in\n    tag_145:\n        /* \"#utility.yul\":7381:7410   */\n      tag_146\n        /* \"#utility.yul\":7403:7409   */\n      dup2\n        /* \"#utility.yul\":7381:7410   */\n      tag_60\n      jump\t// in\n    tag_146:\n        /* \"#utility.yul\":7376:7379   */\n      dup5\n        /* \"#utility.yul\":7372:7411   */\n      add\n        /* \"#utility.yul\":7365:7411   */\n      swap2\n      pop\n        /* \"#utility.yul\":7134:7417   */\n      pop\n        /* \"#utility.yul\":7044:7417   */\n      swap3\n      swap2\n      pop\n      pop\n      jump\t// out\n        /* \"#utility.yul\":7423:7952   */\n    tag_33:\n        /* \"#utility.yul\":7590:7594   */\n      0x00\n        /* \"#utility.yul\":7628:7630   */\n      0x60\n        /* \"#utility.yul\":7617:7626   */\n      dup3\n        /* \"#utility.yul\":7613:7631   */\n      add\n        /* \"#utility.yul\":7605:7631   */\n      swap1\n      pop\n        /* \"#utility.yul\":7641:7712   */\n      tag_148\n        /* \"#utility.yul\":7709:7710   */\n      0x00\n        /* \"#utility.yul\":7698:7707   */\n      dup4\n        /* \"#utility.yul\":7694:7711   */\n      add\n        /* \"#utility.yul\":7685:7691   */\n      dup7\n        /* \"#utility.yul\":7641:7712   */\n      tag_48\n      jump\t// in\n    tag_148:\n        /* \"#utility.yul\":7722:7794   */\n      tag_149\n        /* \"#utility.yul\":7790:7792   */\n      0x20\n        /* \"#utility.yul\":7779:7788   */\n      dup4\n        /* \"#utility.yul\":7775:7793   */\n      add\n        /* \"#utility.yul\":7766:7772   */\n      dup6\n        /* \"#utility.yul\":7722:7794   */\n      tag_49\n      jump\t// in\n    tag_149:\n        /* \"#utility.yul\":7841:7850   */\n      dup2\n        /* \"#utility.yul\":7835:7839   */\n      dup2\n        /* \"#utility.yul\":7831:7851   */\n      sub\n        /* \"#utility.yul\":7826:7828   */\n      0x40\n        /* \"#utility.yul\":7815:7824   */\n      dup4\n        /* \"#utility.yul\":7811:7829   */\n      add\n        /* \"#utility.yul\":7804:7852   */\n      mstore\n        /* \"#utility.yul\":7869:7945   */\n      tag_150\n        /* \"#utility.yul\":7940:7944   */\n      dup2\n        /* \"#utility.yul\":7931:7937   */\n      dup5\n        /* \"#utility.yul\":7869:7945   */\n      tag_61\n      jump\t// in\n    tag_150:\n        /* \"#utility.yul\":7861:7945   */\n      swap1\n      pop\n        /* \"#utility.yul\":7423:7952   */\n      swap5\n      swap4\n      pop\n      pop\n      pop\n      pop\n      jump\t// out\n\n    auxdata: 0xa26469706673582212203a9f33f0ce717e84c745798020fbb4c1b7c4f037e2f010be14a6152d5d0f92ec64736f6c634300081a0033\n}\n",
				"bytecode": {
					"linkReferences": {},
					"object": "6080604052348015600e575f80fd5b506106bb8061001c5f395ff3fe608060405234801561000f575f80fd5b5060043610610034575f3560e01c80638b514f8c14610038578063ea3e2d3014610054575b5f80fd5b610052600480360381019061004d91906102e9565b610070565b005b61006e60048036038101906100699190610339565b61013a565b005b8273ffffffffffffffffffffffffffffffffffffffff1663a9059cbb33838561009991906103b6565b6040518363ffffffff1660e01b81526004016100b6929190610407565b6020604051808303815f875af11580156100d2573d5f803e3d5ffd5b505050506040513d601f19601f820116820180604052508101906100f69190610463565b610135576040517f08c379a000000000000000000000000000000000000000000000000000000000815260040161012c906104e8565b60405180910390fd5b505050565b5f828261271060058561014d9190610506565b6101579190610574565b604051602401610169939291906105a4565b6040516020818303038152906040527f8b514f8c000000000000000000000000000000000000000000000000000000007bffffffffffffffffffffffffffffffffffffffffffffffffffffffff19166020820180517bffffffffffffffffffffffffffffffffffffffffffffffffffffffff838183161783525050505090508373ffffffffffffffffffffffffffffffffffffffff1663f3df12538484846040518463ffffffff1660e01b815260040161022593929190610649565b5f604051808303815f87803b15801561023c575f80fd5b505af115801561024e573d5f803e3d5ffd5b5050505050505050565b5f80fd5b5f73ffffffffffffffffffffffffffffffffffffffff82169050919050565b5f6102858261025c565b9050919050565b6102958161027b565b811461029f575f80fd5b50565b5f813590506102b08161028c565b92915050565b5f819050919050565b6102c8816102b6565b81146102d2575f80fd5b50565b5f813590506102e3816102bf565b92915050565b5f805f60608486031215610300576102ff610258565b5b5f61030d868287016102a2565b935050602061031e868287016102d5565b925050604061032f868287016102d5565b9150509250925092565b5f805f606084860312156103505761034f610258565b5b5f61035d868287016102a2565b935050602061036e868287016102a2565b925050604061037f868287016102d5565b9150509250925092565b7f4e487b71000000000000000000000000000000000000000000000000000000005f52601160045260245ffd5b5f6103c0826102b6565b91506103cb836102b6565b92508282019050808211156103e3576103e2610389565b5b92915050565b6103f28161027b565b82525050565b610401816102b6565b82525050565b5f60408201905061041a5f8301856103e9565b61042760208301846103f8565b9392505050565b5f8115159050919050565b6104428161042e565b811461044c575f80fd5b50565b5f8151905061045d81610439565b92915050565b5f6020828403121561047857610477610258565b5b5f6104858482850161044f565b91505092915050565b5f82825260208201905092915050565b7f52657061796d656e74206661696c6564000000000000000000000000000000005f82015250565b5f6104d260108361048e565b91506104dd8261049e565b602082019050919050565b5f6020820190508181035f8301526104ff816104c6565b9050919050565b5f610510826102b6565b915061051b836102b6565b9250828202610529816102b6565b915082820484148315176105405761053f610389565b5b5092915050565b7f4e487b71000000000000000000000000000000000000000000000000000000005f52601260045260245ffd5b5f61057e826102b6565b9150610589836102b6565b92508261059957610598610547565b5b828204905092915050565b5f6060820190506105b75f8301866103e9565b6105c460208301856103f8565b6105d160408301846103f8565b949350505050565b5f81519050919050565b5f82825260208201905092915050565b8281835e5f83830152505050565b5f601f19601f8301169050919050565b5f61061b826105d9565b61062581856105e3565b93506106358185602086016105f3565b61063e81610601565b840191505092915050565b5f60608201905061065c5f8301866103e9565b61066960208301856103f8565b818103604083015261067b8184610611565b905094935050505056fea26469706673582212203a9f33f0ce717e84c745798020fbb4c1b7c4f037e2f010be14a6152d5d0f92ec64736f6c634300081a0033",
					"opcodes": "PUSH1 0x80 PUSH1 0x40 MSTORE CALLVALUE DUP1 ISZERO PUSH1 0xE JUMPI PUSH0 DUP1 REVERT JUMPDEST POP PUSH2 0x6BB DUP1 PUSH2 0x1C PUSH0 CODECOPY PUSH0 RETURN INVALID PUSH1 0x80 PUSH1 0x40 MSTORE CALLVALUE DUP1 ISZERO PUSH2 0xF JUMPI PUSH0 DUP1 REVERT JUMPDEST POP PUSH1 0x4 CALLDATASIZE LT PUSH2 0x34 JUMPI PUSH0 CALLDATALOAD PUSH1 0xE0 SHR DUP1 PUSH4 0x8B514F8C EQ PUSH2 0x38 JUMPI DUP1 PUSH4 0xEA3E2D30 EQ PUSH2 0x54 JUMPI JUMPDEST PUSH0 DUP1 REVERT JUMPDEST PUSH2 0x52 PUSH1 0x4 DUP1 CALLDATASIZE SUB DUP2 ADD SWAP1 PUSH2 0x4D SWAP2 SWAP1 PUSH2 0x2E9 JUMP JUMPDEST PUSH2 0x70 JUMP JUMPDEST STOP JUMPDEST PUSH2 0x6E PUSH1 0x4 DUP1 CALLDATASIZE SUB DUP2 ADD SWAP1 PUSH2 0x69 SWAP2 SWAP1 PUSH2 0x339 JUMP JUMPDEST PUSH2 0x13A JUMP JUMPDEST STOP JUMPDEST DUP3 PUSH20 0xFFFFFFFFFFFFFFFFFFFFFFFFFFFFFFFFFFFFFFFF AND PUSH4 0xA9059CBB CALLER DUP4 DUP6 PUSH2 0x99 SWAP2 SWAP1 PUSH2 0x3B6 JUMP JUMPDEST PUSH1 0x40 MLOAD DUP4 PUSH4 0xFFFFFFFF AND PUSH1 0xE0 SHL DUP2 MSTORE PUSH1 0x4 ADD PUSH2 0xB6 SWAP3 SWAP2 SWAP1 PUSH2 0x407 JUMP JUMPDEST PUSH1 0x20 PUSH1 0x40 MLOAD DUP1 DUP4 SUB DUP2 PUSH0 DUP8 GAS CALL ISZERO DUP1 ISZERO PUSH2 0xD2 JUMPI RETURNDATASIZE PUSH0 DUP1 RETURNDATACOPY RETURNDATASIZE PUSH0 REVERT JUMPDEST POP POP POP POP PUSH1 0x40 MLOAD RETURNDATASIZE PUSH1 0x1F NOT PUSH1 0x1F DUP3 ADD AND DUP3 ADD DUP1 PUSH1 0x40 MSTORE POP DUP2 ADD SWAP1 PUSH2 0xF6 SWAP2 SWAP1 PUSH2 0x463 JUMP JUMPDEST PUSH2 0x135 JUMPI PUSH1 0x40 MLOAD PUSH32 0x8C379A000000000000000000000000000000000000000000000000000000000 DUP2 MSTORE PUSH1 0x4 ADD PUSH2 0x12C SWAP1 PUSH2 0x4E8 JUMP JUMPDEST PUSH1 0x40 MLOAD DUP1 SWAP2 SUB SWAP1 REVERT JUMPDEST POP POP POP JUMP JUMPDEST PUSH0 DUP3 DUP3 PUSH2 0x2710 PUSH1 0x5 DUP6 PUSH2 0x14D SWAP2 SWAP1 PUSH2 0x506 JUMP JUMPDEST PUSH2 0x157 SWAP2 SWAP1 PUSH2 0x574 JUMP JUMPDEST PUSH1 0x40 MLOAD PUSH1 0x24 ADD PUSH2 0x169 SWAP4 SWAP3 SWAP2 SWAP1 PUSH2 0x5A4 JUMP JUMPDEST PUSH1 0x40 MLOAD PUSH1 0x20 DUP2 DUP4 SUB SUB DUP2 MSTORE SWAP1 PUSH1 0x40 MSTORE PUSH32 0x8B514F8C00000000000000000000000000000000000000000000000000000000 PUSH28 0xFFFFFFFFFFFFFFFFFFFFFFFFFFFFFFFFFFFFFFFFFFFFFFFFFFFFFFFF NOT AND PUSH1 0x20 DUP3 ADD DUP1 MLOAD PUSH28 0xFFFFFFFFFFFFFFFFFFFFFFFFFFFFFFFFFFFFFFFFFFFFFFFFFFFFFFFF DUP4 DUP2 DUP4 AND OR DUP4 MSTORE POP POP POP POP SWAP1 POP DUP4 PUSH20 0xFFFFFFFFFFFFFFFFFFFFFFFFFFFFFFFFFFFFFFFF AND PUSH4 0xF3DF1253 DUP5 DUP5 DUP5 PUSH1 0x40 MLOAD DUP5 PUSH4 0xFFFFFFFF AND PUSH1 0xE0 SHL DUP2 MSTORE PUSH1 0x4 ADD PUSH2 0x225 SWAP4 SWAP3 SWAP2 SWAP1 PUSH2 0x649 JUMP JUMPDEST PUSH0 PUSH1 0x40 MLOAD DUP1 DUP4 SUB DUP2 PUSH0 DUP8 DUP1 EXTCODESIZE ISZERO DUP1 ISZERO PUSH2 0x23C JUMPI PUSH0 DUP1 REVERT JUMPDEST POP GAS CALL ISZERO DUP1 ISZERO PUSH2 0x24E JUMPI RETURNDATASIZE PUSH0 DUP1 RETURNDATACOPY RETURNDATASIZE PUSH0 REVERT JUMPDEST POP POP POP POP POP POP POP POP JUMP JUMPDEST PUSH0 DUP1 REVERT JUMPDEST PUSH0 PUSH20 0xFFFFFFFFFFFFFFFFFFFFFFFFFFFFFFFFFFFFFFFF DUP3 AND SWAP1 POP SWAP2 SWAP1 POP JUMP JUMPDEST PUSH0 PUSH2 0x285 DUP3 PUSH2 0x25C JUMP JUMPDEST SWAP1 POP SWAP2 SWAP1 POP JUMP JUMPDEST PUSH2 0x295 DUP2 PUSH2 0x27B JUMP JUMPDEST DUP2 EQ PUSH2 0x29F JUMPI PUSH0 DUP1 REVERT JUMPDEST POP JUMP JUMPDEST PUSH0 DUP2 CALLDATALOAD SWAP1 POP PUSH2 0x2B0 DUP2 PUSH2 0x28C JUMP JUMPDEST SWAP3 SWAP2 POP POP JUMP JUMPDEST PUSH0 DUP2 SWAP1 POP SWAP2 SWAP1 POP JUMP JUMPDEST PUSH2 0x2C8 DUP2 PUSH2 0x2B6 JUMP JUMPDEST DUP2 EQ PUSH2 0x2D2 JUMPI PUSH0 DUP1 REVERT JUMPDEST POP JUMP JUMPDEST PUSH0 DUP2 CALLDATALOAD SWAP1 POP PUSH2 0x2E3 DUP2 PUSH2 0x2BF JUMP JUMPDEST SWAP3 SWAP2 POP POP JUMP JUMPDEST PUSH0 DUP1 PUSH0 PUSH1 0x60 DUP5 DUP7 SUB SLT ISZERO PUSH2 0x300 JUMPI PUSH2 0x2FF PUSH2 0x258 JUMP JUMPDEST JUMPDEST PUSH0 PUSH2 0x30D DUP7 DUP3 DUP8 ADD PUSH2 0x2A2 JUMP JUMPDEST SWAP4 POP POP PUSH1 0x20 PUSH2 0x31E DUP7 DUP3 DUP8 ADD PUSH2 0x2D5 JUMP JUMPDEST SWAP3 POP POP PUSH1 0x40 PUSH2 0x32F DUP7 DUP3 DUP8 ADD PUSH2 0x2D5 JUMP JUMPDEST SWAP2 POP POP SWAP3 POP SWAP3 POP SWAP3 JUMP JUMPDEST PUSH0 DUP1 PUSH0 PUSH1 0x60 DUP5 DUP7 SUB SLT ISZERO PUSH2 0x350 JUMPI PUSH2 0x34F PUSH2 0x258 JUMP JUMPDEST JUMPDEST PUSH0 PUSH2 0x35D DUP7 DUP3 DUP8 ADD PUSH2 0x2A2 JUMP JUMPDEST SWAP4 POP POP PUSH1 0x20 PUSH2 0x36E DUP7 DUP3 DUP8 ADD PUSH2 0x2A2 JUMP JUMPDEST SWAP3 POP POP PUSH1 0x40 PUSH2 0x37F DUP7 DUP3 DUP8 ADD PUSH2 0x2D5 JUMP JUMPDEST SWAP2 POP POP SWAP3 POP SWAP3 POP SWAP3 JUMP JUMPDEST PUSH32 0x4E487B7100000000000000000000000000000000000000000000000000000000 PUSH0 MSTORE PUSH1 0x11 PUSH1 0x4 MSTORE PUSH1 0x24 PUSH0 REVERT JUMPDEST PUSH0 PUSH2 0x3C0 DUP3 PUSH2 0x2B6 JUMP JUMPDEST SWAP2 POP PUSH2 0x3CB DUP4 PUSH2 0x2B6 JUMP JUMPDEST SWAP3 POP DUP3 DUP3 ADD SWAP1 POP DUP1 DUP3 GT ISZERO PUSH2 0x3E3 JUMPI PUSH2 0x3E2 PUSH2 0x389 JUMP JUMPDEST JUMPDEST SWAP3 SWAP2 POP POP JUMP JUMPDEST PUSH2 0x3F2 DUP2 PUSH2 0x27B JUMP JUMPDEST DUP3 MSTORE POP POP JUMP JUMPDEST PUSH2 0x401 DUP2 PUSH2 0x2B6 JUMP JUMPDEST DUP3 MSTORE POP POP JUMP JUMPDEST PUSH0 PUSH1 0x40 DUP3 ADD SWAP1 POP PUSH2 0x41A PUSH0 DUP4 ADD DUP6 PUSH2 0x3E9 JUMP JUMPDEST PUSH2 0x427 PUSH1 0x20 DUP4 ADD DUP5 PUSH2 0x3F8 JUMP JUMPDEST SWAP4 SWAP3 POP POP POP JUMP JUMPDEST PUSH0 DUP2 ISZERO ISZERO SWAP1 POP SWAP2 SWAP1 POP JUMP JUMPDEST PUSH2 0x442 DUP2 PUSH2 0x42E JUMP JUMPDEST DUP2 EQ PUSH2 0x44C JUMPI PUSH0 DUP1 REVERT JUMPDEST POP JUMP JUMPDEST PUSH0 DUP2 MLOAD SWAP1 POP PUSH2 0x45D DUP2 PUSH2 0x439 JUMP JUMPDEST SWAP3 SWAP2 POP POP JUMP JUMPDEST PUSH0 PUSH1 0x20 DUP3 DUP5 SUB SLT ISZERO PUSH2 0x478 JUMPI PUSH2 0x477 PUSH2 0x258 JUMP JUMPDEST JUMPDEST PUSH0 PUSH2 0x485 DUP5 DUP3 DUP6 ADD PUSH2 0x44F JUMP JUMPDEST SWAP2 POP POP SWAP3 SWAP2 POP POP JUMP JUMPDEST PUSH0 DUP3 DUP3 MSTORE PUSH1 0x20 DUP3 ADD SWAP1 POP SWAP3 SWAP2 POP POP JUMP JUMPDEST PUSH32 0x52657061796D656E74206661696C656400000000000000000000000000000000 PUSH0 DUP3 ADD MSTORE POP JUMP JUMPDEST PUSH0 PUSH2 0x4D2 PUSH1 0x10 DUP4 PUSH2 0x48E JUMP JUMPDEST SWAP2 POP PUSH2 0x4DD DUP3 PUSH2 0x49E JUMP JUMPDEST PUSH1 0x20 DUP3 ADD SWAP1 POP SWAP2 SWAP1 POP JUMP JUMPDEST PUSH0 PUSH1 0x20 DUP3 ADD SWAP1 POP DUP2 DUP2 SUB PUSH0 DUP4 ADD MSTORE PUSH2 0x4FF DUP2 PUSH2 0x4C6 JUMP JUMPDEST SWAP1 POP SWAP2 SWAP1 POP JUMP JUMPDEST PUSH0 PUSH2 0x510 DUP3 PUSH2 0x2B6 JUMP JUMPDEST SWAP2 POP PUSH2 0x51B DUP4 PUSH2 0x2B6 JUMP JUMPDEST SWAP3 POP DUP3 DUP3 MUL PUSH2 0x529 DUP2 PUSH2 0x2B6 JUMP JUMPDEST SWAP2 POP DUP3 DUP3 DIV DUP5 EQ DUP4 ISZERO OR PUSH2 0x540 JUMPI PUSH2 0x53F PUSH2 0x389 JUMP JUMPDEST JUMPDEST POP SWAP3 SWAP2 POP POP JUMP JUMPDEST PUSH32 0x4E487B7100000000000000000000000000000000000000000000000000000000 PUSH0 MSTORE PUSH1 0x12 PUSH1 0x4 MSTORE PUSH1 0x24 PUSH0 REVERT JUMPDEST PUSH0 PUSH2 0x57E DUP3 PUSH2 0x2B6 JUMP JUMPDEST SWAP2 POP PUSH2 0x589 DUP4 PUSH2 0x2B6 JUMP JUMPDEST SWAP3 POP DUP3 PUSH2 0x599 JUMPI PUSH2 0x598 PUSH2 0x547 JUMP JUMPDEST JUMPDEST DUP3 DUP3 DIV SWAP1 POP SWAP3 SWAP2 POP POP JUMP JUMPDEST PUSH0 PUSH1 0x60 DUP3 ADD SWAP1 POP PUSH2 0x5B7 PUSH0 DUP4 ADD DUP7 PUSH2 0x3E9 JUMP JUMPDEST PUSH2 0x5C4 PUSH1 0x20 DUP4 ADD DUP6 PUSH2 0x3F8 JUMP JUMPDEST PUSH2 0x5D1 PUSH1 0x40 DUP4 ADD DUP5 PUSH2 0x3F8 JUMP JUMPDEST SWAP5 SWAP4 POP POP POP POP JUMP JUMPDEST PUSH0 DUP2 MLOAD SWAP1 POP SWAP2 SWAP1 POP JUMP JUMPDEST PUSH0 DUP3 DUP3 MSTORE PUSH1 0x20 DUP3 ADD SWAP1 POP SWAP3 SWAP2 POP POP JUMP JUMPDEST DUP3 DUP2 DUP4 MCOPY PUSH0 DUP4 DUP4 ADD MSTORE POP POP POP JUMP JUMPDEST PUSH0 PUSH1 0x1F NOT PUSH1 0x1F DUP4 ADD AND SWAP1 POP SWAP2 SWAP1 POP JUMP JUMPDEST PUSH0 PUSH2 0x61B DUP3 PUSH2 0x5D9 JUMP JUMPDEST PUSH2 0x625 DUP2 DUP6 PUSH2 0x5E3 JUMP JUMPDEST SWAP4 POP PUSH2 0x635 DUP2 DUP6 PUSH1 0x20 DUP7 ADD PUSH2 0x5F3 JUMP JUMPDEST PUSH2 0x63E DUP2 PUSH2 0x601 JUMP JUMPDEST DUP5 ADD SWAP2 POP POP SWAP3 SWAP2 POP POP JUMP JUMPDEST PUSH0 PUSH1 0x60 DUP3 ADD SWAP1 POP PUSH2 0x65C PUSH0 DUP4 ADD DUP7 PUSH2 0x3E9 JUMP JUMPDEST PUSH2 0x669 PUSH1 0x20 DUP4 ADD DUP6 PUSH2 0x3F8 JUMP JUMPDEST DUP2 DUP2 SUB PUSH1 0x40 DUP4 ADD MSTORE PUSH2 0x67B DUP2 DUP5 PUSH2 0x611 JUMP JUMPDEST SWAP1 POP SWAP5 SWAP4 POP POP POP POP JUMP INVALID LOG2 PUSH5 0x6970667358 0x22 SLT KECCAK256 GASPRICE SWAP16 CALLER CREATE 0xCE PUSH18 0x7E84C745798020FBB4C1B7C4F037E2F010BE EQ 0xA6 ISZERO 0x2D TSTORE 0xF SWAP3 0xEC PUSH5 0x736F6C6343 STOP ADDMOD BYTE STOP CALLER "
				},
				"gasEstimates": {
					"creation": {
						"codeDepositCost": "344600",
						"executionCost": "378",
						"totalCost": "344978"
					},
					"external": {
						"executeOperation(address,uint256,uint256)": "infinite",
						"requestFlashLoan(address,address,uint256)": "infinite"
					}
				},
				"methodIdentifiers": {
					"executeOperation(address,uint256,uint256)": "8b514f8c",
					"requestFlashLoan(address,address,uint256)": "ea3e2d30"
				}
			},
			"storageLayout": {
				"storage": [],
				"types": null
			},
			"userdoc": {
				"kind": "user",
				"methods": {},
				"version": 1
			}
		}
	}
}